S01900005243206361722077686F6C6520636F64652E7372656326
S113000045C0000053C0000051C000004FC00000B4
S11300104DC000004BC0000049C0000047C00000B4
S113002045C0000043C0000041C000003FC00000C4
S11300303DC000003BC0000039C0000037C00000D4
S113004035C0000033C0000031C000002FC00000E4
S11300502DC000002BC0000029C0000027C00000F4
S113006025C0000023C0000021C000001FC0000004
S11300701DC000001BC000001AC0000017C0000013
S113008015C0000013C0000011C0000011241FBEE1
S1130090CFEFD0E1DEBFCDBF21E0A0E0B1E001C0F1
S11300A01D92A130B207E1F741D084C0A9CF1F92BD
S11300B00F920FB60F9211248F9380919C0080931E
S11300C000018F910F900FBE0F901F9018958FEF26
S11300D08ABB87BB88E081BB8FE182B910929B0009
S11300E088E980939A0086E080939D00109298009E
S11300F087E680939900089582E28FBD89E18EBDE1
S11301008FE193E097BD86BD0895EBE8F0E0808130
S113011082628083EAE8F0E080818B61808387E8F3
S113012093E190938100809380000895D0DFE4DF11
S1130130ECDF789480910001873449F48EEF8BBB17
S11301408FE792E099BD88BD8AE083B9F3CF8091AF
S11301500001823449F48FE78BBB8FE792E099BDAD
S113016088BD85E083B9E6CF80910001823559F4DA
S11301708FE08BBB80E183B982EC91E090938500A2
S113018080938400D7CF809100018C3459F480EFA0
S11301908BBB80E183B98CE291E0909385008093DE
S11301A08400C8CF80910001813521F61BBA19BCA7
S10B01B018BCC0CFF894FFCF86
S9030000FC
