:1000000045C0000053C0000051C000004FC00000B8
:100010004DC000004BC0000049C0000047C00000B8
:1000200045C0000043C0000041C000003FC00000C8
:100030003DC000003BC0000039C0000037C00000D8
:1000400035C0000033C0000031C000002FC00000E8
:100050002DC000002BC0000029C0000027C00000F8
:1000600025C0000023C0000021C000001FC0000008
:100070001DC000001BC000001AC0000017C0000017
:1000800015C0000013C0000011C0000011241FBEE5
:10009000CFEFD0E1DEBFCDBF21E0A0E0B1E001C0F5
:1000A0001D92A330B207E1F7ADD0BCC0A9CF1F921B
:1000B0000F920FB60F9211248F9380919C00809322
:1000C00000018F910F900FBE0F901F9018958FEF2A
:1000D0008ABB87BB88E081BB8FE182B91092610047
:1000E00010929B0088E980939A0086E080939D009F
:1000F0001092980087E680939900089582E28FBD60
:1001000089E18EBD8FE193E097BD86BD0895EBE850
:10011000F0E0808182628083EAE8F0E080818B6198
:10012000808387E893E19093810080938000089515
:1001300080E487B987E886B9089580910001873403
:1001400091F480910101909102018D3291401CF057
:100150008CE38BBB54C08FEF8BBB8FEC92E099BDCF
:1001600088BD8AE00BC080910001823449F48FEF92
:100170008BBB8FEC92E099BD88BD85E183B9089572
:1001800080910001823571F48FE38BBB80E183B9EC
:1001900080918400909185008E35914090F18AEF96
:1001A00090E023C0809100018C3471F48CEF8BBB04
:1001B00080E183B9809184009091850081399140DC
:1001C00000F584EF91E011C0809100018D3491F42D
:1001D00083EC8BBB80E183B9809184009091850092
:1001E0008C37914071F08CE791E09093850080937B
:1001F0008400089580910001811103C01BBA19BCCD
:1002000018BC089564DF7ADF82DF92DF7894369A33
:10021000349BFECF84B195B190930201809301018C
:080220008CDFF5CFF894FFCF4D
:00000001FF
